{
  "contractName": "PermaURLStorage",
  "abi": [
    {
      "constant": false,
      "inputs": [
        {
          "name": "hashedURL",
          "type": "bytes32"
        },
        {
          "name": "fullURL",
          "type": "string"
        }
      ],
      "name": "set",
      "outputs": [],
      "payable": false,
      "stateMutability": "nonpayable",
      "type": "function"
    },
    {
      "constant": true,
      "inputs": [
        {
          "name": "hashedURL",
          "type": "bytes32"
        }
      ],
      "name": "get",
      "outputs": [
        {
          "name": "",
          "type": "string"
        }
      ],
      "payable": false,
      "stateMutability": "view",
      "type": "function"
    }
  ],
  "bytecode": "0x608060405234801561001057600080fd5b50610332806100206000396000f30060806040526004361061004c576000357c0100000000000000000000000000000000000000000000000000000000900463ffffffff1680638eaa6ac014610051578063b4800033146100fb575b600080fd5b34801561005d57600080fd5b506100806004803603810190808035600019169060200190929190505050610172565b6040518080602001828103825283818151815260200191508051906020019080838360005b838110156100c05780820151818401526020810190506100a5565b50505050905090810190601f1680156100ed5780820380516001836020036101000a031916815260200191505b509250505060405180910390f35b34801561010757600080fd5b506101706004803603810190808035600019169060200190929190803590602001908201803590602001908080601f016020809104026020016040519081016040528093929190818152602001838380828437820191505050505050919291929050505061022e565b005b606060008083600019166000191681526020019081526020016000208054600181600116156101000203166002900480601f0160208091040260200160405190810160405280929190818152602001828054600181600116156101000203166002900480156102225780601f106101f757610100808354040283529160200191610222565b820191906000526020600020905b81548152906001019060200180831161020557829003601f168201915b50505050509050919050565b806000808460001916600019168152602001908152602001600020908051906020019061025c929190610261565b505050565b828054600181600116156101000203166002900490600052602060002090601f016020900481019282601f106102a257805160ff19168380011785556102d0565b828001600101855582156102d0579182015b828111156102cf5782518255916020019190600101906102b4565b5b5090506102dd91906102e1565b5090565b61030391905b808211156102ff5760008160009055506001016102e7565b5090565b905600a165627a7a72305820766e2e696804701b5bb1f3fb0166af5b0b9437ee06974284a79022517c68de4f0029",
  "source": "pragma solidity ^0.4.24;\n\ncontract PermaURLStorage {\n\n\tmapping(bytes32 => string) private hashToFullURL;\n\n\tfunction set(bytes32 hashedURL, string fullURL) public {\n\t\thashToFullURL[hashedURL] = fullURL;\n\t}\n\n  function get(bytes32 hashedURL) public view returns (string) {\n\t\t// TODO return null if missing\n\t\treturn hashToFullURL[hashedURL];\n\t}\n}\n",
  "sourcePath": "/Users/savil/code/permaurl/contracts/PermaURLStorage.sol",
  "compiler": {
    "name": "solc",
    "version": "0.4.24+commit.e67f0147.Emscripten.clang"
  },
  "schemaVersion": "2.0.1",
  "updatedAt": "2018-12-14T19:40:11.165Z"
}