{
  "contractName": "PermaURLStorage",
  "abi": [
    {
      "constant": false,
      "inputs": [
        {
          "name": "fullURL",
          "type": "string"
        }
      ],
      "name": "set",
      "outputs": [
        {
          "name": "",
          "type": "bytes32"
        }
      ],
      "payable": false,
      "stateMutability": "nonpayable",
      "type": "function"
    }
  ],
  "bytecode": "0x608060405234801561001057600080fd5b50610239806100206000396000f300608060405260043610610041576000357c0100000000000000000000000000000000000000000000000000000000900463ffffffff1680634ed3885e14610046575b600080fd5b34801561005257600080fd5b506100ad600480360381019080803590602001908201803590602001908080601f01602080910402602001604051908101604052809392919081815260200183838082843782019150505050505091929192905050506100cb565b60405180826000191660001916815260200191505060405180910390f35b600080826040518082805190602001908083835b60208310151561010457805182526020820191506020810190506020830392506100df565b6001836020036101000a038019825116818451168082178552505050505050905001915050604051809103902090508260008083600019166000191681526020019081526020016000209080519060200190610161929190610168565b5050919050565b828054600181600116156101000203166002900490600052602060002090601f016020900481019282601f106101a957805160ff19168380011785556101d7565b828001600101855582156101d7579182015b828111156101d65782518255916020019190600101906101bb565b5b5090506101e491906101e8565b5090565b61020a91905b808211156102065760008160009055506001016101ee565b5090565b905600a165627a7a72305820212698eae4eed2b3034ee3b26178f996da7c1adebfb45f36ca4e36159cf39e810029",
  "source": "pragma solidity ^0.4.24;\n\ncontract PermaURLStorage {\n\n\tmapping(bytes32 => string) private hashToFullURL;\n\n\tfunction set(string fullURL) public returns (bytes32) {\n\t\tbytes32 hashed = keccak256(fullURL);\n\t\thashToFullURL[hashed] = fullURL;\n\t}\n}\n",
  "sourcePath": "/Users/savil/code/permaurl/contracts/PermaURLStorage.sol",
  "compiler": {
    "name": "solc",
    "version": "0.4.24+commit.e67f0147.Emscripten.clang"
  },
  "schemaVersion": "2.0.1",
  "updatedAt": "2018-12-13T19:36:14.894Z"
}