{
  "contractName": "PermaURLStorage",
  "abi": [
    {
      "constant": false,
      "inputs": [
        {
          "name": "hashedURL",
          "type": "bytes32"
        },
        {
          "name": "fullURL",
          "type": "bytes"
        }
      ],
      "name": "set",
      "outputs": [],
      "payable": false,
      "stateMutability": "nonpayable",
      "type": "function"
    },
    {
      "constant": true,
      "inputs": [
        {
          "name": "hashedURL",
          "type": "bytes32"
        }
      ],
      "name": "get",
      "outputs": [
        {
          "name": "",
          "type": "bytes"
        }
      ],
      "payable": false,
      "stateMutability": "view",
      "type": "function"
    }
  ],
  "bytecode": "0x608060405234801561001057600080fd5b50610424806100206000396000f30060806040526004361061004c576000357c0100000000000000000000000000000000000000000000000000000000900463ffffffff1680638eaa6ac014610051578063aac438c0146100fb575b600080fd5b34801561005d57600080fd5b506100806004803603810190808035600019169060200190929190505050610172565b6040518080602001828103825283818151815260200191508051906020019080838360005b838110156100c05780820151818401526020810190506100a5565b50505050905090810190601f1680156100ed5780820380516001836020036101000a031916815260200191505b509250505060405180910390f35b34801561010757600080fd5b506101706004803603810190808035600019169060200190929190803590602001908201803590602001908080601f016020809104026020016040519081016040528093929190818152602001838380828437820191505050505050919291929050505061022e565b005b606060008083600019166000191681526020019081526020016000208054600181600116156101000203166002900480601f0160208091040260200160405190810160405280929190818152602001828054600181600116156101000203166002900480156102225780601f106101f757610100808354040283529160200191610222565b820191906000526020600020905b81548152906001019060200180831161020557829003601f168201915b50505050509050919050565b60008060008460001916600019168152602001908152602001600020805460018160011615610100020316600290049050141515610320576040517f08c379a00000000000000000000000000000000000000000000000000000000081526004018080602001828103825260488152602001807f68617368656455524c20697320616c72656164792070726573656e742c20706c81526020017f656173652063616c6c202e6765742868617368656455524c2920746f2063686581526020017f636b20666972737400000000000000000000000000000000000000000000000081525060600191505060405180910390fd5b806000808460001916600019168152602001908152602001600020908051906020019061034e929190610353565b505050565b828054600181600116156101000203166002900490600052602060002090601f016020900481019282601f1061039457805160ff19168380011785556103c2565b828001600101855582156103c2579182015b828111156103c15782518255916020019190600101906103a6565b5b5090506103cf91906103d3565b5090565b6103f591905b808211156103f15760008160009055506001016103d9565b5090565b905600a165627a7a7230582080865b18b6b5ae4e8d4b0e939bfcd4a714ad596143032a8e3caa86202f3f48610029",
  "source": "pragma solidity ^0.4.24;\n\ncontract PermaURLStorage {\n\n\tmapping(bytes32 => bytes) private hashToFullURL;\n\n\tfunction set(bytes32 hashedURL, bytes fullURL) public {\n\t\t// callers should first invoke get(hashedURL) to ensure\n\t\t// this key is not already present\n\t\trequire(\n\t\t\t// TODO savil. More efficient check for this?\n\t\t\thashToFullURL[hashedURL].length == 0,\n\t\t\t\"hashedURL is already present, please call .get(hashedURL) to check first\"\n\t\t);\n\n\t\thashToFullURL[hashedURL] = fullURL;\n\t}\n\n  function get(bytes32 hashedURL) public view returns (bytes) {\n\t\t// returns 0x0 if empty\n\t\treturn hashToFullURL[hashedURL];\n\t}\n}\n",
  "sourcePath": "/Users/savil/code/permaurl/contracts/PermaURLStorage.sol",
  "compiler": {
    "name": "solc",
    "version": "0.4.24+commit.e67f0147.Emscripten.clang"
  },
  "schemaVersion": "2.0.1",
  "updatedAt": "2018-12-19T04:33:43.625Z"
}